:020000040800F2
:1040000090080020CD4100083B46000833460008D8
:104010003746000875420008034B00080000000006
:10402000000000000000000000000000D947000868
:10403000F542000800000000C1460008C54800081D
:10404000E7410008E7410008E7410008E7410008B0
:10405000E7410008E7410008E7410008E7410008A0
:10406000E7410008E7410008E7410008E741000890
:10407000E7410008E7410008E7410008E741000880
:10408000E7410008E7410008E7410008E741000870
:10409000E7410008E7410008E7410008E741000860
:1040A000E7410008E7410008E7410008E741000850
:1040B000E7410008E7410008E7410008E741000840
:1040C000E7410008E7410008E7410008E741000830
:1040D000E7410008E741000845490008E7410008BA
:1040E000E7410008E7410008E7410008E741000810
:1040F000E7410008E7410008E7410008E741000800
:10410000E7410008E7410008E7410008E7410008EF
:10411000E7410008E7410008E7410008E7410008DF
:10412000E7410008E7410008E7410008E7410008CF
:1041300000F002F800F03AF80AA090E8000C82447F
:104140008344AAF10107DA4501D100F02FF8AFF25C
:10415000090EBAE80F0013F0010F18BFFB1A43F065
:104160000103184780150000A0150000103A24BF75
:1041700078C878C1FAD8520724BF30C830C144BFCC
:1041800004680C607047000000230024002500260E
:10419000103A28BF78C1FBD8520728BF30C148BFAA
:1041A0000B6070471FB51FBD10B510BD00F033F890
:1041B0001146FFF7F7FF00F009FF00F051F803B4D4
:1041C000FFF7F2FF03BC00F0BFFC00000948804786
:1041D00009480047FEE7FEE7FEE7FEE7FEE7FEE7E9
:1041E000FEE7FEE7FEE7FEE704480549054A064B01
:1041F00070470000C94800083141000890020020C3
:104200009008002090040020900400207047704720
:10421000704770477047754600F028F8AE460500B5
:104220006946534620F00700854618B020B5FFF7D1
:10423000DBFFBDE820404FF000064FF000074FF0D5
:1042400000084FF0000B21F00701AC46ACE8C009B4
:10425000ACE8C009ACE8C009ACE8C0098D467047BD
:104260000446AFF300802046FFF7A9FF00487047DF
:104270003002002000BFFEE710B520211C4800F0EE
:10428000CBF9C8B9642000F036F82021184800F0B6
:10429000C3F988B94021164800F0BEF9012804D1BD
:1042A0004021134800F0C1F903E04021104800F01C
:1042B000BEF9002000F0B8FF00F0B0FF052814D2CE
:1042C000DFE800F0030B101112004021084800F055
:1042D000ACF9FA2000F08CFD08E04FF4FA7000F021
:1042E00087FD03E002E000BF00E000BF00BF10BD9B
:1042F000000C01407047002106E041F28D5100BFE3
:104300000A00A1F10101FBD10200A0F10100F4D1EA
:10431000704710B5044600F08DF8C4F3090018B9D1
:10432000204600F007F801E0002010BD00F042F840
:104330000120FAE730B5044604254FF4302000F0A0
:1043400085F80546042D17D10C48006940F002009D
:104350000A49086108464461006940F0400008616C
:104360004FF4302000F072F805460448006941F629
:10437000FD71084001490861284630BD0020024017
:1043800004200B49C96801F0010109B101200EE0C8
:104390000749C96801F0040109B1022007E0044996
:1043A000C96801F0100109B1032000E00420704742
:1043B000002002400348006940F080000149086184
:1043C000704700000020024078B506460C460425E0
:1043D00000200090E80200F039F80546042D24D1B1
:1043E0001348006940F00100114908613480E80277
:1043F00000F02CF80546042D10D1B01C0090200CC4
:1044000000990880E80200F021F805460848006994
:1044100041F6FE7108400649086106E0044800695B
:1044200041F6FE71084002490861284678BD000047
:104430000020024002480349486003484860704732
:104440002301674500200240AB89EFCD00B502464D
:104450000423FFF795FF034603E0FFF791FF0346B0
:10446000521E012B01D1002AF7D102B905231846AB
:1044700000BD2DE9F0410246002500260020002362
:104480000024002791F803C00CF00F0591F803C039
:104490000CF0100CBCF1000F03D091F802C04CEAF4
:1044A000050591F800C0BCF1000F31D01468002060
:1044B0002BE04FF0010C0CFA00F3B1F800C00CEA4D
:1044C00003069E4220D183004FF00F0C0CFA03F735
:1044D000BC4305FA03FC4CEA040491F803C0BCF1A8
:1044E000280F06D14FF0010C0CFA00FCC2F814C0E2
:1044F0000AE091F803C0BCF1480F05D14FF0010C60
:104500000CFA00FCC2F810C0401C0828D1D314607B
:10451000B1F800C0BCF1FF0F34DD546800202EE07C
:1045200000F1080C4FF0010808FA0CF3B1F800C0D4
:104530000CEA03069E4221D183004FF00F0C0CFAC7
:1045400003F7BC4305FA03FC4CEA040491F803C0EA
:10455000BCF1280F05D100F1080C08FA0CF8C2F8DC
:10456000148091F803C0BCF1480F07D100F1080C8A
:104570004FF0010808FA0CF8C2F81080401C082817
:10458000CED35460BDE8F081F0B50A460023002484
:104590000021002500F00046B6F1004F02D11D4E6B
:1045A000F16901E01B4E7168C0F3034583B200F46A
:1045B0004016B6F5401F08D121F07061154E76689F
:1045C00026F07066134F7E6012E000F48016B6F598
:1045D000801F06D1032606FA05F4A14341F070615D
:1045E00006E0460D360103FA06F6B14341F070616C
:1045F00022B1460D360103FA06F6314300F00046BB
:10460000B6F1004F02D1034EF16101E0014E71603D
:10461000F0BD0000000001400246002093680B40FE
:104620000BB1012000E0002070474161704701613B
:10463000704700BFFEE700BFFEE7704770B500217E
:1046400000230F22C47804B3154C246804F4E064FA
:10465000C4F5E064210AC1F10403CA40447804FAB5
:1046600003F184781440214309010E4C0678A155CA
:10467000047804F01F050124AC4005786D11AD00ED
:1046800005F1E025C5F8004109E0047804F01F05B4
:104690000124AC40044D0678761145F8264070BDE3
:1046A0000CED00E000E400E080E100E0024901439D
:1046B000024A1160704700000000FA050CED00E0AE
:1046C0007047000029B1064AD2690243044BDA61FF
:1046D00004E0034AD2698243014BDA61704700006B
:1046E0000010024029B1064A92690243044B9A61C4
:1046F00004E0034A92698243014B9A6170470000CB
:104700000010024030B500210022002400232D4D6E
:104710006D6805F00C0121B1042905D0082923D1C9
:1047200005E0294D056022E0274D05601FE0254D7D
:104730006D6805F47012234D6D6805F48034022510
:1047400005EB92421CB9214D554305600BE01D4D10
:104750006D6805F400351DB11C4D5543056002E040
:10476000194D5543056002E0174D056000BF00BFBD
:10477000144D6D6805F0F0010909154D6B5C056875
:10478000DD4045600F4D6D6805F4E061090A104D8C
:104790006B5C4568DD4085600A4D6D6805F46051CD
:1047A000C90A0B4D6B5C4568DD40C560054D6D6801
:1047B00005F44041890B074D6B5CC568B5FBF3F50B
:1047C000056130BD0010024000127A0000093D0072
:1047D0000C0000201C000020704710B500F002F80B
:1047E00010BD00000CB50020019000903348006817
:1047F00040F480303149086000BF3048006800F460
:10480000003000900198401C0190009818B9019860
:10481000B0F5A06FF1D12948006800F4003010B164
:104820000120009001E0002000900098012843D171
:104830002348006840F010002149086008460068DD
:1048400020F0030008600846006840F0020008609D
:104850001A48406819494860084640684860084658
:10486000406840F4806048600846406820F47C104E
:1048700048600846406840F4E81048600846006810
:1048800040F08070086000BF0C48006800F00070C5
:104890000028F9D00948406820F003000749486023
:1048A0000846406840F00200486000BF0348406886
:1048B00000F00C000828F9D10CBD000000100240E7
:1048C000002002407047000010B51348006840F017
:1048D00001001149086008464068104908400E4927
:1048E0004860084600680E4908400B4908600846C1
:1048F000006820F4802008600846406820F4FE002C
:1049000048604FF41F008860FFF767FF4FF00060BA
:104910000449086010BD0000001002400000FFF8CC
:10492000FFFFF6FE08ED00E000BF0549098801F031
:1049300080018029F9D10249091D088070470000D3
:104940000044004010B5002440F22551054800F015
:1049500017F818B1034800F0CFF8C4B2204600F0B1
:10496000A1FD10BD0044004021B1828942F40052F3
:10497000828104E082894DF6FF731A40828170477C
:1049800070B50246002400230025002040F66A1678
:10499000B14200D100BFC1F3421501F01F0301264F
:1049A00006FA03F3012D02D19689334006E0022D69
:1049B00002D1168A334001E0968A33400C12012658
:1049C00006FA04F41688344013B10CB1012000E05B
:1049D000002070BDF0B5034600240026002500200D
:1049E00040F66A17B94200D100BF1846C1F342141D
:1049F00001F01F06012707FA06F5012C01D10C3042
:104A000004E0022C01D1103000E014301AB1076824
:104A10002F43076002E00768AF430760F0BD000066
:104A20002DE9F04786B005460E460024A24600BF99
:104A3000A1460027B08900B100BF2F462C8A4CF652
:104A4000FF700440F08804432C82AC894EF6F310CA
:104A50000440B08831890843718908430443AC811C
:104A6000AC8A4FF6FF400440B0890443AC8201A8F1
:104A7000FFF748FE1F48874202D1DDF810A001E091
:104A8000DDF80CA0A88900F4004040B10AEBCA0090
:104A900000EB0A1031684900B0FBF1F807E00AEBBF
:104AA000CA0000EB0A1031688900B0FBF1F86420FD
:104AB000B8FBF0F004012009642101FB1089A889EA
:104AC00000F4004040B1322000EBC900B0FBF1F02F
:104AD00000F00700044308E0322000EB09106421D5
:104AE000B0FBF1F000F00F0004432C8106B0BDE8EC
:104AF000F08700000038014001468888C0F30800B4
:104B0000704700BFFEE72DE9F04107460D4690468D
:104B1000FFF790FC002411E0E01C285C0606A01CB6
:104B2000285C46EA0046601C285C46EA0026285DB0
:104B3000064338193146FFF747FC241D4445EBD3A3
:104B4000FFF738FCBDE8F081014600BF704710B5A3
:104B50000021012000F07EFA0021072000F0D8FAA1
:104B600010BD01460020087800024A781043000278
:104B70008A7810430002CA78104370472DE9FC5F21
:104B800004464FF0000A7F49E01C11F800B0BBF169
:104B90000F0F7DD2DFE80BF0080B0E111C2024F262
:104BA00045F24895F2F2E60000F0F4F9E7E000F093
:104BB0007FFBE4E000F0E6F9E1E07249A01D085C4B
:104BC0007149087000220321084600F055FDD6E027
:104BD00001206E490870D2E001206D490870CEE0D6
:104BE0006849601D095C674A201D105C41EA002885
:104BF000002713E0A01D3844801C6249085C0502B0
:104C0000A01D3844C01C085C05442144891DC819F6
:104C100000F0C8F80646281D384487B24745E9DB4E
:104C2000ADE0FFF794FFAAE04FF00009B9F1000FE3
:104C300004D14FF48070574908800EE0B9F1010F9C
:104C400004D14FF400705349088006E0B9F1020F17
:104C500003D14FF480604F4908804A49A01D085C89
:104C60004D49086008460068000208604549E01D9B
:104C7000085C4949096808434749086008460068D4
:104C8000000208603F4904F10800085C424900E066
:104C900074E009680843404908600846006800025B
:104CA0000860384904F10900085C3B490968084379
:104CB00039490860002000F027FC0A2037490870B5
:104CC0005DE0364800780A284BD10120344908704D
:104CD0002C49601D095C2B4A201D105C41EA00280C
:104CE0001146A01D0D5C2D02E01D085C05432D0240
:104CF00004F10800085C05432D0204F10900085C7A
:104D000005438A4604F10A008244B8F1040F0DD12C
:104D100021480068854209D100222946504600F00A
:104D200033FA064600201D49087010E0A8F104007F
:104D300018490988884206DC82B22946504600F0AC
:104D400023FA064603E00020144908700026012ECD
:104D500004D1002203210B2000F08EFC002010491A
:104D600008700CE00749A01D085C0190E01D085C7C
:104D70000090DDE9001000F0EBFB00E000BF00BF99
:104D8000BDE8FC9F3C0000202F0000202D000020EB
:104D90002E000020320000203400002038000020C7
:104DA0002C0000202DE9F0470446267894F8018075
:104DB000A0784FF6FF7101EA0025E078284485B21B
:104DC000304600F0C7F80746084800EB4700407837
:104DD000404502D00020BDE8F0872A46211D30461C
:104DE00000F040F881464846F5E70000DC56000830
:104DF0000146114A12884A434FF0E0235A610022CB
:104E00009A611A46126942F001021A6100BF4FF01E
:104E1000E022106900F001021AB100F48032002A89
:104E2000F5D04FF0E022126922F001024FF0E023AA
:104E30001A6100229A617047020000202DE9F041BA
:104E400004460D462946204600F0E0F9074639465B
:104E5000072000F05DF90646012E01D1BDE8F08182
:104E60000020FBE72DE9F04105460E461746012DCF
:104E700004D0072D08D00F2D12D10BE03946304653
:104E800000F032F804460CE039463046FFF7D6FF12
:104E9000044606E03946304600F007F8044600E0D4
:104EA00000BF00BF2046BDE8F0812DE9F041064675
:104EB0000F463946304600F0A6F9054625B1012DCA
:104EC00003D0022D03D101E002E001E000E000BFC9
:104ED00000BF29460F2000F0EFF80446012C01D155
:104EE000BDE8F0810020FBE72DE9F04106460F46C2
:104EF0003946304600F084F9054645B910210D4881
:104F0000FFF793FB40210B48FFF78FFB07E01021D1
:104F10000848FFF78CFB40210648FFF788FB29462D
:104F2000012000F097F80446012C01D1BDE8F08182
:104F30000020FBE7000C014030B5024600200023B2
:104F400005E012F8015B2C18E0B25C1CA3B28B42A6
:104F5000F7DB30BD70B5054600F012F806460024B8
:104F600007E0064810F81400A84200D103E0601CD6
:104F7000C4B2B442F5DB00BF204670BDDC56000869
:104F80000320704710B5002422460321022000F0C0
:104F900073FB10BD10B500240B48007840B9002108
:104FA000204600F007FAC4B201200749087004E067
:104FB0000121204600F0FEF9C4B222460321002060
:104FC00000F05AFB10BD00003000002008B50121A0
:104FD0000920FFF787FB01211A48FFF7D5FA1020B7
:104FE0008DF8030003208DF802005020ADF800007A
:104FF00069461548FFF73DFA40211348FFF717FBB4
:1050000010211148FFF713FB2020ADF800004820C5
:105010008DF8030069460C48FFF72BFA0B480C4942
:1050200008604FF4A060FFF741FB4FF4165000F00A
:10503000E7F900F077FA03E0FFF71EF900F08CFAC9
:10504000FAE7000000023000000C014000400008B8
:1050500008ED00E070B504460D46002615480078BE
:10506000012800D170BD2146304600F0A3F9064664
:105070000121304600F09EF906460021304600F03E
:1050800099F906460121304600F094F906462DB9FB
:105090000021304600F08EF9064604E0012130463A
:1050A00000F088F9064632460321072000F0E4FAB2
:1050B0000120D7E72C00002070B504460E460025DD
:1050C00012480078012800D170BD2146284600F022
:1050D00071F905460421284600F06CF905460021C7
:1050E000284600F067F905460121284600F062F9DC
:1050F00005463146284600F05DF905462A4603215B
:10510000072000F0B9FA0120DEE700002C000020A3
:1051100070B505460C4600261A480078012800D1D3
:1051200070BD2946304600F045F90646022130465A
:1051300000F040F906460021304600F03BF90646F3
:105140000421304600F036F90646210E304600F0C4
:1051500031F90646C4F30741304600F02BF9064604
:10516000C4F30721304600F025F90646E1B2304687
:1051700000F020F9064632460321072000F07CFAB1
:105180000120CDE72C00002070B505460C461646E0
:10519000DEB91548FFF7BDF8012214491248FFF7A0
:1051A000B2FC4FF400511248FFF741FA00BF11481A
:1051B000006800F4E06010490843001D0D490860D4
:1051C000BFF3408F00BF00BFFEE7C4F3090018B96A
:1051D0000A496018FFF79DF80849601832462946C9
:1051E000FFF791FC012070BD00F8000804000020CA
:1051F000001001400CED00E00000FA0500A00008DE
:1052000002461078704702461078704710B5034682
:105210000C461846FFF7A5FC10BD000001480078B9
:10522000704700002F00002070B5044600250020C4
:10523000064908702146284600F0BCF8C5B22A4647
:105240000321052000F018FA70BD00002E00002098
:10525000F0B505460E4613462A46344605B10EB94A
:105260000020F0BDA24202D9E018904208D20021ED
:1052700003E0605C5054481C81B29942F9DB07E0BE
:10528000194603E0481E275C175481B20029F9DC57
:105290002846E6E70146002209B9002070470022AF
:1052A00000E0521C11F8013B002BFAD11046F5E743
:1052B0003EB50024002000900190029025A0FFF749
:1052C000E9FF85B22A4623A1204600F05FF8C4B268
:1052D00022A0FFF7DFFF85B22A4620A1204600F07A
:1052E00055F8C4B222A0FFF7D5FF85B22A4620A107
:1052F000204600F04BF8C4B21FA0FFF7CBFF85B2E9
:105300002A461DA1204600F041F8C4B21CA0FFF7B8
:10531000C1FF85B22A461AA1204600F037F8C4B270
:1053200016A0FFF7B7FF85B22A4614A1204600F069
:105330002DF8C4B214A0FFF7ADFF85B22A4612A122
:10534000204600F023F8C4B222460321012000F0D9
:1053500093F93EBD7B2270223A2200003868706BC0
:105360003471343466376A6F7065616E0000000016
:10537000222C2276223A2200312E302E32000000DA
:10538000222C226D223A00007D0000002DE9F04120
:1053900004460E461546064807192A463146384641
:1053A000FFF756FF601984B22046BDE8F081000087
:1053B000FC010020024B1A181170431C98B2704770
:1053C000FC0100200B4909680B4A126891420FD07A
:1053D00008490A6809498A4202D38739054A116097
:1053E00004490968087803490968491C014A1160A1
:1053F000704700002800002024000020F601002053
:1054000010B586B0044601210420FFF76BF9012195
:105410004804FFF757F90420ADF8140003208DF875
:10542000160018208DF8170005A91C48FFF721F871
:105430000820ADF8140004208DF8170005A91748BE
:10544000FFF717F826208DF8000003208DF80100E3
:105450008DF8020001208DF803006846FFF7EEF892
:1054600001940020ADF80800ADF80A00ADF80C007A
:10547000ADF810000C20ADF80E0001A90848FFF7A8
:10548000CFFA012240F225510548FFF7A3FA012186
:105490000348FFF769FA06B010BD0000000801409C
:1054A0000044004012490968124A1268891A012909
:1054B0001CD0104909680E4A1268914206D90D495C
:1054C00009680B4A1268891A87290FD209490A68A4
:1054D00009498A4202D38739064A11600549096899
:1054E000087004490968491C024A116070470000AD
:1054F0002800002024000020F601002010B50446FA
:105500002046FFF711FA10BD70B50446002521466C
:105510002846FFF74FFF05462A4603210A2000F0E0
:10552000ABF870BD054806490860064908600020D0
:1055300005490870FF200549087070476F01002079
:1055400024000020280000202C0000202F00002034
:1055500008B901B100BF704770B50024002509E00B
:10556000FFF730FF39490A880988491C374B1980F1
:105570003749885435480088B0F5997F03D800F042
:105580009FF80028ECDC31480088072800DA70BD5D
:1055900043E02F48005D552802D0601C84B23CE0F7
:1055A0002B49601C085CAA2802D0601C84B234E03D
:1055B0002749A01C085C10B1A01C84B22DE024492E
:1055C000201D085C4FF6FF7101EA00252049601D8F
:1055D000085CC01D284485B2B5F59D7F02D9E01C4A
:1055E00084B21AE019480088001BA84200DA19E0CA
:1055F0006A1E91B2164A1019FFF79EFC6119491EE6
:10560000134A515C884202D0E01C84B205E0204677
:10561000FFF7B4FA601984B200BF0C480088001B81
:105620000728B6DA00BF09480088001B0749088030
:1056300008460088002806DD05480119034802884D
:105640000348FFF705FE00BFA1E70000200000208F
:105650003C00002070B504460D4604B105B970BD8C
:1056600003E02078FFF74AFF641C2800A5F1010140
:105670008DB2F6D100BFF2E72DE9F04105460E46A6
:105680001446002755200D490870AA204870084686
:105690008670C570201208714C71E01D84B2601EC6
:1056A00081B20648FFF748FC0746601E03490F54C5
:1056B00021460248FFF7CEFFBDE8F081F601002049
:1056C0000448006804490968884201D001207047F5
:1056D0000020FCE724000020280000200101070230
:1056E0000F04000004570008000000203C000000E8
:1056F0006C410008405700083C000020540800009E
:10570000884100080000000055555555AAAAAAAACC
:105710000000000001020304010203040607080957
:105720000204060800000000000000000000000065
:105730000000000000000000000000000000000069
:04000005080041317D
:00000001FF
