:020000040800F2
:1000000020080020FD0B00086501000867010008BA
:100010008B0100088F010008930100080000000018
:100020000000000000000000000000009701000830
:1000300099010008000000009B010008150C000851
:10004000170C0008170C0008170C0008170C000804
:10005000170C0008170C0008170C0008170C0008F4
:10006000170C0008170C0008170C0008170C0008E4
:10007000170C0008170C0008170C0008170C0008D4
:10008000170C0008170C0008170C0008170C0008C4
:10009000170C0008170C0008170C0008170C0008B4
:1000A000170C0008170C0008170C0008170C0008A4
:1000B000170C0008170C0008170C0008170C000894
:1000C000170C0008170C0008170C0008170C000884
:1000D000170C0008170C0008170C0008170C000874
:1000E000170C0008170C0008170C0008170C000864
:1000F000170C0008170C0008170C0008170C000854
:10010000170C0008170C0008170C0008170C000843
:10011000170C0008170C0008170C0008170C000833
:10012000170C0008170C0008170C0008170C000823
:10013000DFF80CD000F086FD00480047D901000828
:1001400020080020EFF30980704780F3098870478A
:10015000EFF30880704780F30888704740BA704713
:10016000C0BA704770470FE071B600BF0B48006817
:1001700000F4E0600A490843001D08490860BFF325
:10018000408F00BF00BFFEE7EEE700BFFEE700BF05
:10019000FEE700BFFEE77047704770470CED00E0D8
:1001A0000000FA0538B5044620681F490840B0F140
:1001B000005F10D120680840B0F1005F0AD160688C
:1001C00000901A49009808602068FFF7C4FF17489C
:1001D0000068804700BF38BD00F036F823E01448BF
:1001E00000F0A4F8B0F1553F1AD11249124800F0BE
:1001F000A0F80F4800F089F8042210490C4800F0DC
:1002000063F800BF0E48006800F4E0600D49084341
:10021000001D0B490860BFF3408F00BF00BFFEE721
:100220000548FFF7BFFFDAE70000FE2F00000020BF
:1002300000F8000800A000080040000804000020AA
:100240000CED00E00000FA0510B54FF4A06000F0DE
:1002500089F910BD71B600BF0648006800F4E0607F
:1002600005490843001D03490860BFF3408F00BFE4
:1002700000BFFEE70CED00E00000FA0530B50446D3
:10028000002300201CE0236801F8013B401C904241
:1002900000D317E01D0A01F8015B401C904200D317
:1002A00010E01D0C01F8015B401C904200D309E0F6
:1002B0001D0E01F8015B401C904200D302E0241D9A
:1002C0009042E0D300BF30BD2DE9F04107460D4616
:1002D000904600F0D4F9002411E0E01C285C0606EA
:1002E000A01C285C46EA0046601C285C46EA002602
:1002F000285D06433819314600F0D6FA241D4445DE
:10030000EBD300F0C8F9BDE8F08110B5044600F069
:10031000B6F9C4F3090018B9204600F0F5F901E078
:10032000002010BD00F0B7F90120FAE70146086887
:100330007047F8B505460E46701B800A00900024F1
:1003400019E0FF224FF480610D4800F069FC06EBD4
:1003500084204FF480620A49FFF790FF05EB842068
:10036000FFF7D3FF05EB84204FF480620449FFF7C9
:10037000ABFF601C84B200988442E2D3F8BD000059
:100380001C0000200CB50020019000906C48006813
:1003900040F480306A49086000BF6948006800F492
:1003A000003000900198401C0190009818B9019805
:1003B000B0F5A06FF1D16248006800F4003010B1D0
:1003C0000120009001E0002000900098012843D116
:1003D0005C48006840F010005A4908600846006810
:1003E00020F0030008600846006840F00200086042
:1003F000534840685249486008464068486008468B
:10040000406840F4806048600846406820F47C10F2
:1004100048600846406840F4E810486008460068B4
:1004200040F08070086000BF4548006800F0007030
:100430000028F9D04248406820F003004049486055
:100440000846406840F00200486000BF3C484068F1
:1004500000F00C000828F9D10CBD10B5FFF792FF91
:1004600010BD10B53648006840F0010034490860FE
:1004700008464068344908403149486008460068E9
:10048000324908402E4908600846006820F4802060
:1004900008600846406820F4FE0048604FF41F00E2
:1004A0008860FFF7DAFF4FF000602949086010BD4F
:1004B00010B5002100200022214B5B6803F00C01E5
:1004C00021B1042906D0082928D107E0214B224C6C
:1004D000236027E01F4B204C236023E0184B5B6810
:1004E00003F47010164B5B6803F48032022303EBB5
:1004F000904022B9194B4343174C23600DE0104B39
:100500005B6803F4003323B1144B4343124C236064
:1005100003E0104B4343104C236003E00D4B0E4CA3
:10052000236000BF00BF064B5B68C3F303130C4C92
:10053000E15C094B1B68CB40074C236010BD0000F9
:1005400000100240002002400000FFF8FFFFF6FE0E
:1005500008ED00E000127A000800002000093D00CC
:100560000C00002031490143314A1160704770B5D9
:10057000002100230F22C47804B32D4C246804F416
:10058000E064C4F5E064210AC1F10403CA40447880
:1005900004FA03F18478144021430901254C0678BC
:1005A000A155047804F01F050124AC4005786D11B5
:1005B000AD0005F1E025C5F8004109E0047804F03C
:1005C0001F050124AC401C4D0678761145F82640E5
:1005D00070BD1A4A0A400243154B1B1F1A60704730
:1005E00039B1134A121D12680243114B1B1D1A60C8
:1005F00006E00F4A121D126882430D4B1B1D1A6044
:100600007047042808D14FF0E021096941F0040146
:100610004FF0E022116107E04FF0E021096921F07D
:1006200004014FF0E0221161704700000000FA055C
:100630000CED00E000E400E080E100E080FFFF1F3F
:1006400001460020FE4A106800F0380008431060A0
:100650007047FB49096821F00801F94A1160114609
:100660000968014311607047F549096821F01001DC
:10067000F34A116011460968014311607047F1485F
:10068000EF494860F04848607047EE48EC494860E0
:10069000ED4848607047EA48006940F08000E8494A
:1006A00008617047E648006940F08000E44908614D
:1006B00070470420E249C96801F0010109B1012035
:1006C0000EE0DF49C96801F0040109B1022007E02A
:1006D000DB49C96801F0100109B1032000E00420E2
:1006E000704700B502460423FFF7E3FF034603E02B
:1006F000FFF7DFFF0346521E012B01D1002AF7D17D
:1007000002B90523184600BD30B5044604254FF450
:100710003020FFF7E6FF0546042D17D1C8480069D1
:1007200040F00200C649086108464461006940F093
:10073000400008614FF43020FFF7D3FF0546C04862
:10074000006941F6FD710840BD490861284630BD89
:1007500010B504244FF43020FFF7C3FF0446042CE7
:1007600016D1B748006940F00400B5490861084651
:10077000006940F0400008614FF43020FFF7B1FFFE
:100780000446AF48006941F6FB710840AC49086176
:10079000204610BD00B502460423FFF78AFF03463A
:1007A00003E0FFF786FF0346521E012B01D1002A0A
:1007B000F7D102B90523184600BD10B504244FF443
:1007C0003020FFF7E7FF0446042C16D19C4800694F
:1007D00040F004009A4908610846006940F0400072
:1007E00008614FF43020FFF7D5FF044694480069B4
:1007F00041F6FB71084092490861204610BD002077
:100800008F49C96901F0020109B1012000E000200F
:10081000704730B5A5250424FFF7F1FF00B100258E
:100820004FF43020FFF75DFF0446042C3AD1854891
:1008300083498860844888600846006940F0200049
:1008400008610846006940F0400008614FF430201C
:10085000FFF747FF0446042C1BD17948006941F695
:10086000DF710840764908610846006940F01000D1
:10087000086176480580E002FFF733FF0446052C47
:1008800010D06F48006941F6EF7108406C4908616B
:1008900008E0052C06D06A48006941F6EF7108406F
:1008A00067490861204630BD78B506460C460425E8
:1008B00000200090E802FFF714FF0546042D24D124
:1008C0005F48006940F001005D4908613480E8023A
:1008D000FFF707FF0546042D10D1B01C0090200C37
:1008E00000990880E802FFF7FCFE054654480069BD
:1008F00041F6FE7108405249086106E0504800691F
:1009000041F6FE7108404E490861284678BD70B531
:1009100004460D460426F002FFF7E3FE0646042EC9
:1009200011D14748006940F0010045490861258020
:10093000F002FFF7D6FE06464148006941F6FE7117
:1009400008403F490861304670BD70B505460E4607
:100950000424E002FFF7C5FE0446042C17D13948F1
:1009600037498860384888600846006940F01000C0
:1009700008612E80E002FFF7B4FE0446052C06D085
:100980002F48006941F6EF7108402D490861204663
:1009900070BD2DE9F04304464FF6FF763746B0466A
:1009A000B1460425E443E6B2C4F30727C4F307487D
:1009B0004FEA1469E802FFF794FE0546042D49D179
:1009C00020481F498860204888600846006940F038
:1009D00010000861FF2E06D01C4808300680E8028F
:1009E000FFF77FFE0546042D08D1FF2F06D01748DC
:1009F0000A300780E802FFF774FE0546042D0AD18D
:100A0000B8F1FF0F07D011480C30A0F80080E802C1
:100A1000FFF767FE0546042D0AD1B9F1FF0F07D095
:100A20000A480E30A0F80090E802FFF75AFE05468B
:100A3000052D0FD00248006941F6EF71084007E02C
:100A40000020024023016745AB89EFCD00F8FF1F6E
:100A5000664908612846BDE8F08330B505460424A0
:100A60004FF43020FFF73DFE0446042C41D160488E
:100A70005E4988605F4888600846006940F0200051
:100A800008610846006940F0400008614FF43020DA
:100A9000FFF727FE0446042C22D15448006941F692
:100AA000DF710840514908610846006940F01000B4
:100AB00008611DB100205049088002E0A5204E4980
:100AC00008804FF43020FFF70CFE0446052C10D0B0
:100AD0004648006941F6EF7108404449086108E062
:100AE000052C06D04148006941F6DF7108403F49B6
:100AF0000861204630BDF0B505460E461746042471
:100B00003B483A4988603B488860E002FFF7E9FDCE
:100B10000446042C19D13548006940F010003349CF
:100B2000086147F0F800304328433349891C0880A6
:100B3000E002FFF7D6FD0446052C06D02B480069DD
:100B400041F6EF710840294908612046F0BD274869
:100B5000C069800870472548006A70470020234913
:100B6000096801F0200109B1012000E00020704770
:100B700029B11E4A126902431C4B1A6104E01B4A48
:100B800012698243194B1A617047014600200129FE
:100B900008D1164AD26902F001020AB1012008E028
:100BA000002006E0114AD2680A400AB1012000E0A4
:100BB000002070470D49C860704704200B49C96880
:100BC00001F0010109B101200EE00849C96801F0F6
:100BD000040109B1022007E00449C96801F01001CD
:100BE00009B1032000E0042070470000002002400B
:100BF00023016745AB89EFCD00F8FF1F064880470A
:100C000006480047FEE7FEE7FEE7FEE7FEE7FEE7F1
:100C1000FEE7FEE7FEE7FEE7630400083101000897
:100C2000D2B201E000F8012B491EFBD2704700222E
:100C3000F6E710B513460A4604461946FFF7F0FFDB
:100C4000204610BD064C074D06E0E06840F0010369
:100C500094E8070098471034AC42F6D3FFF76CFADB
:100C6000880C0008A80C000802E008C8121F08C180
:100C7000002AFAD170477047002001E001C1121F1D
:100C8000002AFBD170470000A80C000800000020DB
:100C90001C000000680C0008C40C00081C000020A8
:100CA00004080000780C000800000000AAAAAAAA04
:100CB00000A24A040000000000000000010203043A
:040CC0000607080912
:0400000508000131BD
:00000001FF
